{
  "contractName": "Addition",
  "abi": [
    {
      "inputs": [],
      "name": "a",
      "outputs": [
        {
          "internalType": "uint256",
          "name": "",
          "type": "uint256"
        }
      ],
      "stateMutability": "view",
      "type": "function",
      "constant": true
    },
    {
      "inputs": [],
      "name": "b",
      "outputs": [
        {
          "internalType": "uint256",
          "name": "",
          "type": "uint256"
        }
      ],
      "stateMutability": "view",
      "type": "function",
      "constant": true
    },
    {
      "inputs": [],
      "name": "addition1",
      "outputs": [
        {
          "internalType": "uint256",
          "name": "",
          "type": "uint256"
        }
      ],
      "stateMutability": "view",
      "type": "function",
      "constant": true
    },
    {
      "inputs": [
        {
          "internalType": "uint256",
          "name": "x",
          "type": "uint256"
        },
        {
          "internalType": "uint256",
          "name": "y",
          "type": "uint256"
        }
      ],
      "name": "addition2",
      "outputs": [
        {
          "internalType": "uint256",
          "name": "",
          "type": "uint256"
        }
      ],
      "stateMutability": "pure",
      "type": "function",
      "constant": true
    },
    {
      "inputs": [
        {
          "internalType": "uint256",
          "name": "_a",
          "type": "uint256"
        },
        {
          "internalType": "uint256",
          "name": "_b",
          "type": "uint256"
        }
      ],
      "name": "setValues",
      "outputs": [],
      "stateMutability": "nonpayable",
      "type": "function"
    }
  ],
  "bytecode": "0x608060405234801561001057600080fd5b506102ad806100206000396000f3fe608060405234801561001057600080fd5b50600436106100575760003560e01c80630dbe671f1461005c5780634d3e46e41461007a5780634df7e3d0146100985780639c3dfaf6146100b6578063f1d16438146100d2575b600080fd5b610064610102565b6040516100719190610166565b60405180910390f35b610082610108565b60405161008f9190610166565b60405180910390f35b6100a061011f565b6040516100ad9190610166565b60405180910390f35b6100d060048036038101906100cb91906101b2565b610125565b005b6100ec60048036038101906100e791906101b2565b610137565b6040516100f99190610166565b60405180910390f35b60005481565b600060015460005461011a9190610221565b905090565b60015481565b81600081905550806001819055505050565b600081836101459190610221565b905092915050565b6000819050919050565b6101608161014d565b82525050565b600060208201905061017b6000830184610157565b92915050565b600080fd5b61018f8161014d565b811461019a57600080fd5b50565b6000813590506101ac81610186565b92915050565b600080604083850312156101c9576101c8610181565b5b60006101d78582860161019d565b92505060206101e88582860161019d565b9150509250929050565b7f4e487b7100000000000000000000000000000000000000000000000000000000600052601160045260246000fd5b600061022c8261014d565b91506102378361014d565b9250827fffffffffffffffffffffffffffffffffffffffffffffffffffffffffffffffff0382111561026c5761026b6101f2565b5b82820190509291505056fea2646970667358221220c6116badc0ce006b56e1a29f7dbd3747aee3364e4f20bbb81b91555554043e4764736f6c634300080d0033",
  "immutableReferences": {},
  "source": "// SPDX-License-Identifier: MIT\npragma solidity >=0.4.22 <0.9.0;\n\ncontract Addition {\n    uint public a;\n    uint public b;\n\n\n    function addition1() public view returns (uint) {\n        return a + b;\n    }\n\n    function addition2(uint x, uint y) public pure returns (uint) {\n        return x + y;\n    }\n\n    function setValues(uint _a, uint _b) public {\n        a = _a;\n        b = _b;\n    }\n}\n",
  "sourcePath": "/Users/mac/Documents/MUS-Kenitra/Blockchain/blockchain-pfm/blockchain/contracts/Addition.sol",
  "compiler": {
    "name": "solc",
    "version": "0.8.13+commit.abaa5c0e.Emscripten.clang"
  },
  "schemaVersion": "3.4.16",
  "updatedAt": "2025-05-11T20:05:43.261Z",
  "networkType": "ethereum",
  "devdoc": {
    "kind": "dev",
    "methods": {},
    "version": 1
  },
  "userdoc": {
    "kind": "user",
    "methods": {},
    "version": 1
  }
}