{
  "contractName": "Conversion",
  "abi": [
    {
      "inputs": [
        {
          "internalType": "uint256",
          "name": "montantEther",
          "type": "uint256"
        }
      ],
      "name": "etherEnWei",
      "outputs": [
        {
          "internalType": "uint256",
          "name": "",
          "type": "uint256"
        }
      ],
      "stateMutability": "pure",
      "type": "function",
      "constant": true
    },
    {
      "inputs": [
        {
          "internalType": "uint256",
          "name": "montantWei",
          "type": "uint256"
        }
      ],
      "name": "weiEnEther",
      "outputs": [
        {
          "internalType": "uint256",
          "name": "",
          "type": "uint256"
        }
      ],
      "stateMutability": "pure",
      "type": "function",
      "constant": true
    }
  ],
  "bytecode": "0x608060405234801561001057600080fd5b50610286806100206000396000f3fe608060405234801561001057600080fd5b50600436106100365760003560e01c806318b5d6e51461003b578063b5fcda341461006b575b600080fd5b61005560048036038101906100509190610110565b61009b565b604051610062919061014c565b60405180910390f35b61008560048036038101906100809190610110565b6100b8565b604051610092919061014c565b60405180910390f35b6000670de0b6b3a7640000826100b191906101c5565b9050919050565b6000670de0b6b3a7640000826100ce91906101f6565b9050919050565b600080fd5b6000819050919050565b6100ed816100da565b81146100f857600080fd5b50565b60008135905061010a816100e4565b92915050565b600060208284031215610126576101256100d5565b5b6000610134848285016100fb565b91505092915050565b610146816100da565b82525050565b6000602082019050610161600083018461013d565b92915050565b7f4e487b7100000000000000000000000000000000000000000000000000000000600052601260045260246000fd5b7f4e487b7100000000000000000000000000000000000000000000000000000000600052601160045260246000fd5b60006101d0826100da565b91506101db836100da565b9250826101eb576101ea610167565b5b828204905092915050565b6000610201826100da565b915061020c836100da565b9250817fffffffffffffffffffffffffffffffffffffffffffffffffffffffffffffffff048311821515161561024557610244610196565b5b82820290509291505056fea2646970667358221220e31060f63756ba141155557d4d70e1cf9439254a9530b4b0eae6bb5cfbad0e8c64736f6c634300080d0033",
  "immutableReferences": {},
  "source": "pragma solidity >=0.4.22 <0.9.0;\n\ncontract Conversion {\n    function etherEnWei(uint montantEther) public pure returns (uint) {\n        return montantEther * 1 ether;\n    }\n\n    function weiEnEther(uint montantWei) public pure returns (uint) {\n        return montantWei / 1 ether;\n    }\n}\n",
  "sourcePath": "/Users/mac/Documents/MUS-Kenitra/Blockchain/blockchain-pfm/blockchain/contracts/Conversion.sol",
  "compiler": {
    "name": "solc",
    "version": "0.8.13+commit.abaa5c0e.Emscripten.clang"
  },
  "schemaVersion": "3.4.16",
  "updatedAt": "2025-05-11T20:05:43.307Z",
  "networkType": "ethereum",
  "devdoc": {
    "kind": "dev",
    "methods": {},
    "version": 1
  },
  "userdoc": {
    "kind": "user",
    "methods": {},
    "version": 1
  }
}