{
  "contractName": "NumbersSum",
  "abi": [
    {
      "inputs": [
        {
          "internalType": "uint256",
          "name": "",
          "type": "uint256"
        }
      ],
      "name": "nombres",
      "outputs": [
        {
          "internalType": "uint256",
          "name": "",
          "type": "uint256"
        }
      ],
      "stateMutability": "view",
      "type": "function",
      "constant": true
    },
    {
      "inputs": [
        {
          "internalType": "uint256",
          "name": "number",
          "type": "uint256"
        }
      ],
      "name": "ajouterNombre",
      "outputs": [],
      "stateMutability": "nonpayable",
      "type": "function"
    },
    {
      "inputs": [],
      "name": "afficheTableau",
      "outputs": [
        {
          "internalType": "uint256[]",
          "name": "",
          "type": "uint256[]"
        }
      ],
      "stateMutability": "view",
      "type": "function",
      "constant": true
    },
    {
      "inputs": [],
      "name": "calculerSomme",
      "outputs": [
        {
          "internalType": "uint256",
          "name": "sum",
          "type": "uint256"
        }
      ],
      "stateMutability": "view",
      "type": "function",
      "constant": true
    }
  ],
  "bytecode": "0x608060405234801561001057600080fd5b5061047d806100206000396000f3fe608060405234801561001057600080fd5b506004361061004c5760003560e01c80631f4440b0146100515780637692fb5f1461006f578063bd92c6671461009f578063e66df334146100bb575b600080fd5b6100596100d9565b60405161006691906102a1565b60405180910390f35b610089600480360381019061008491906102f4565b610131565b6040516100969190610330565b60405180910390f35b6100b960048036038101906100b491906102f4565b610155565b005b6100c3610181565b6040516100d09190610330565b60405180910390f35b6060600080548060200260200160405190810160405280929190818152602001828054801561012757602002820191906000526020600020905b815481526020019060010190808311610113575b5050505050905090565b6000818154811061014157600080fd5b906000526020600020016000915090505481565b600081908060018154018082558091505060019003906000526020600020016000909190919091505550565b600080600090505b6000805490508110156101d557600081815481106101aa576101a961034b565b5b9060005260206000200154826101c091906103a9565b915080806101cd906103ff565b915050610189565b5090565b600081519050919050565b600082825260208201905092915050565b6000819050602082019050919050565b6000819050919050565b61021881610205565b82525050565b600061022a838361020f565b60208301905092915050565b6000602082019050919050565b600061024e826101d9565b61025881856101e4565b9350610263836101f5565b8060005b8381101561029457815161027b888261021e565b975061028683610236565b925050600181019050610267565b5085935050505092915050565b600060208201905081810360008301526102bb8184610243565b905092915050565b600080fd5b6102d181610205565b81146102dc57600080fd5b50565b6000813590506102ee816102c8565b92915050565b60006020828403121561030a576103096102c3565b5b6000610318848285016102df565b91505092915050565b61032a81610205565b82525050565b60006020820190506103456000830184610321565b92915050565b7f4e487b7100000000000000000000000000000000000000000000000000000000600052603260045260246000fd5b7f4e487b7100000000000000000000000000000000000000000000000000000000600052601160045260246000fd5b60006103b482610205565b91506103bf83610205565b9250827fffffffffffffffffffffffffffffffffffffffffffffffffffffffffffffffff038211156103f4576103f361037a565b5b828201905092915050565b600061040a82610205565b91507fffffffffffffffffffffffffffffffffffffffffffffffffffffffffffffffff820361043c5761043b61037a565b5b60018201905091905056fea2646970667358221220cf317af8e06d85c97ffd0b3e1001e8097197c3164fa4fe8ecb877910c79e73f464736f6c634300080d0033",
  "immutableReferences": {},
  "source": "pragma solidity >=0.4.22 <0.9.0;\n\ncontract NumbersSum {\n    uint[] public nombres;\n\n    function ajouterNombre(uint number) public {\n        nombres.push(number);\n    }\n\n    function afficheTableau() public view returns (uint[] memory) {\n        return nombres;\n    }\n\n    function calculerSomme() public view returns (uint sum) {\n        for (uint i = 0; i < nombres.length; i++) {\n            sum += nombres[i];\n        }\n    }\n}\n",
  "sourcePath": "/Users/mac/Documents/MUS-Kenitra/Blockchain/blockchain-pfm/blockchain/contracts/NumbersSum.sol",
  "compiler": {
    "name": "solc",
    "version": "0.8.13+commit.abaa5c0e.Emscripten.clang"
  },
  "schemaVersion": "3.4.16",
  "updatedAt": "2025-05-11T12:11:59.968Z",
  "networkType": "ethereum",
  "devdoc": {
    "kind": "dev",
    "methods": {},
    "version": 1
  },
  "userdoc": {
    "kind": "user",
    "methods": {},
    "version": 1
  }
}