{
  "contractName": "Payment",
  "abi": [
    {
      "anonymous": false,
      "inputs": [
        {
          "indexed": true,
          "internalType": "address",
          "name": "from",
          "type": "address"
        },
        {
          "indexed": false,
          "internalType": "uint256",
          "name": "amount",
          "type": "uint256"
        }
      ],
      "name": "PaymentReceived",
      "type": "event"
    },
    {
      "anonymous": false,
      "inputs": [
        {
          "indexed": true,
          "internalType": "address",
          "name": "recipient",
          "type": "address"
        }
      ],
      "name": "RecipientSet",
      "type": "event"
    },
    {
      "anonymous": false,
      "inputs": [
        {
          "indexed": true,
          "internalType": "address",
          "name": "to",
          "type": "address"
        },
        {
          "indexed": false,
          "internalType": "uint256",
          "name": "amount",
          "type": "uint256"
        }
      ],
      "name": "Withdrawal",
      "type": "event"
    },
    {
      "inputs": [],
      "name": "recipient",
      "outputs": [
        {
          "internalType": "address",
          "name": "",
          "type": "address"
        }
      ],
      "stateMutability": "view",
      "type": "function",
      "constant": true
    },
    {
      "stateMutability": "payable",
      "type": "receive",
      "payable": true
    },
    {
      "inputs": [
        {
          "internalType": "address",
          "name": "_recipient",
          "type": "address"
        }
      ],
      "name": "setRecipient",
      "outputs": [],
      "stateMutability": "nonpayable",
      "type": "function"
    },
    {
      "inputs": [],
      "name": "withdraw",
      "outputs": [],
      "stateMutability": "nonpayable",
      "type": "function"
    },
    {
      "inputs": [],
      "name": "deposit",
      "outputs": [],
      "stateMutability": "payable",
      "type": "function",
      "payable": true
    },
    {
      "inputs": [],
      "name": "getBalance",
      "outputs": [
        {
          "internalType": "uint256",
          "name": "",
          "type": "uint256"
        }
      ],
      "stateMutability": "view",
      "type": "function",
      "constant": true
    }
  ],
  "bytecode": "0x608060405234801561001057600080fd5b506107db806100206000396000f3fe60806040526004361061004e5760003560e01c806312065fe0146100a85780633bbed4a0146100d35780633ccfd60b146100fc57806366d003ac14610113578063d0e30db01461013e576100a3565b366100a3573373ffffffffffffffffffffffffffffffffffffffff167f6ef95f06320e7a25a04a175ca677b7052bdd97131872c2192525a629f51be77034604051610099919061050f565b60405180910390a2005b600080fd5b3480156100b457600080fd5b506100bd610148565b6040516100ca919061050f565b60405180910390f35b3480156100df57600080fd5b506100fa60048036038101906100f5919061058d565b610150565b005b34801561010857600080fd5b50610111610245565b005b34801561011f57600080fd5b50610128610482565b60405161013591906105c9565b60405180910390f35b6101466104a6565b005b600047905090565b600073ffffffffffffffffffffffffffffffffffffffff168173ffffffffffffffffffffffffffffffffffffffff16036101bf576040517f08c379a00000000000000000000000000000000000000000000000000000000081526004016101b690610641565b60405180910390fd5b806000806101000a81548173ffffffffffffffffffffffffffffffffffffffff021916908373ffffffffffffffffffffffffffffffffffffffff1602179055508073ffffffffffffffffffffffffffffffffffffffff167f9d900d71c28433348acb1bec780a061608a96b149370abce77fd54ba2d47940160405160405180910390a250565b600073ffffffffffffffffffffffffffffffffffffffff1660008054906101000a900473ffffffffffffffffffffffffffffffffffffffff1673ffffffffffffffffffffffffffffffffffffffff16036102d4576040517f08c379a00000000000000000000000000000000000000000000000000000000081526004016102cb906106ad565b60405180910390fd5b60008054906101000a900473ffffffffffffffffffffffffffffffffffffffff1673ffffffffffffffffffffffffffffffffffffffff163373ffffffffffffffffffffffffffffffffffffffff1614610362576040517f08c379a000000000000000000000000000000000000000000000000000000000815260040161035990610719565b60405180910390fd5b6000479050600081116103aa576040517f08c379a00000000000000000000000000000000000000000000000000000000081526004016103a190610785565b60405180910390fd5b60008054906101000a900473ffffffffffffffffffffffffffffffffffffffff1673ffffffffffffffffffffffffffffffffffffffff166108fc829081150290604051600060405180830381858888f19350505050158015610410573d6000803e3d6000fd5b5060008054906101000a900473ffffffffffffffffffffffffffffffffffffffff1673ffffffffffffffffffffffffffffffffffffffff167f7fcf532c15f0a6db0bd6d0e038bea71d30d808c7d98cb3bf7268a95bf5081b6582604051610477919061050f565b60405180910390a250565b60008054906101000a900473ffffffffffffffffffffffffffffffffffffffff1681565b3373ffffffffffffffffffffffffffffffffffffffff167f6ef95f06320e7a25a04a175ca677b7052bdd97131872c2192525a629f51be770346040516104ec919061050f565b60405180910390a2565b6000819050919050565b610509816104f6565b82525050565b60006020820190506105246000830184610500565b92915050565b600080fd5b600073ffffffffffffffffffffffffffffffffffffffff82169050919050565b600061055a8261052f565b9050919050565b61056a8161054f565b811461057557600080fd5b50565b60008135905061058781610561565b92915050565b6000602082840312156105a3576105a261052a565b5b60006105b184828501610578565b91505092915050565b6105c38161054f565b82525050565b60006020820190506105de60008301846105ba565b92915050565b600082825260208201905092915050565b7f496e76616c696420616464726573730000000000000000000000000000000000600082015250565b600061062b600f836105e4565b9150610636826105f5565b602082019050919050565b6000602082019050818103600083015261065a8161061e565b9050919050565b7f526563697069656e74206e6f7420736574000000000000000000000000000000600082015250565b60006106976011836105e4565b91506106a282610661565b602082019050919050565b600060208201905081810360008301526106c68161068a565b9050919050565b7f4f6e6c7920726563697069656e742063616e2077697468647261770000000000600082015250565b6000610703601b836105e4565b915061070e826106cd565b602082019050919050565b60006020820190508181036000830152610732816106f6565b9050919050565b7f4e6f2066756e647320746f207769746864726177000000000000000000000000600082015250565b600061076f6014836105e4565b915061077a82610739565b602082019050919050565b6000602082019050818103600083015261079e81610762565b905091905056fea264697066735822122020a81a901710cb3129c47d5b463fa92fe97547ec45f134356077109d4faaa66a64736f6c634300080d0033",
  "immutableReferences": {},
  "source": "// SPDX-License-Identifier: MIT\npragma solidity >=0.4.22 <0.9.0;\ncontract Payment {\n    address public recipient;\n\n    event RecipientSet(address indexed recipient);\n    event PaymentReceived(address indexed from, uint amount);\n    event Withdrawal(address indexed to, uint amount);\n\n    // Set the recipient address\n    function setRecipient(address _recipient) public {\n        require(_recipient != address(0), \"Invalid address\");\n        recipient = _recipient;\n        emit RecipientSet(_recipient);\n    }\n\n    // Receive ether payments\n    receive() external payable {\n        emit PaymentReceived(msg.sender, msg.value);\n    }\n\n    // Withdraw funds to the recipient\n    function withdraw() public {\n        require(recipient != address(0), \"Recipient not set\");\n        require(msg.sender == recipient, \"Only recipient can withdraw\");\n        uint amount = address(this).balance;\n        require(amount > 0, \"No funds to withdraw\");\n\n        payable(recipient).transfer(amount);\n        emit Withdrawal(recipient, amount);\n    }\n    function deposit() public payable {\n        emit PaymentReceived(msg.sender, msg.value);\n    }\n\n    // View contract balance\n    function getBalance() public view returns (uint) {\n        return address(this).balance;\n    }\n}",
  "sourcePath": "/Users/mac/Documents/MUS-Kenitra/Blockchain/blockchain-pfm/blockchain/contracts/Payment.sol",
  "compiler": {
    "name": "solc",
    "version": "0.8.13+commit.abaa5c0e.Emscripten.clang"
  },
  "schemaVersion": "3.4.16",
  "updatedAt": "2025-05-11T20:05:43.785Z",
  "networkType": "ethereum",
  "devdoc": {
    "kind": "dev",
    "methods": {},
    "version": 1
  },
  "userdoc": {
    "kind": "user",
    "methods": {},
    "version": 1
  }
}