{
  "contractName": "Payment",
  "abi": [
    {
      "inputs": [],
      "name": "recipient",
      "outputs": [
        {
          "internalType": "address",
          "name": "",
          "type": "address"
        }
      ],
      "stateMutability": "view",
      "type": "function",
      "constant": true
    },
    {
      "stateMutability": "payable",
      "type": "receive",
      "payable": true
    },
    {
      "inputs": [
        {
          "internalType": "address",
          "name": "_recipient",
          "type": "address"
        }
      ],
      "name": "setRecipient",
      "outputs": [],
      "stateMutability": "nonpayable",
      "type": "function"
    },
    {
      "inputs": [],
      "name": "withdraw",
      "outputs": [],
      "stateMutability": "nonpayable",
      "type": "function"
    }
  ],
  "bytecode": "0x608060405234801561001057600080fd5b506103a0806100206000396000f3fe6080604052600436106100385760003560e01c80633bbed4a0146100445780633ccfd60b1461006d57806366d003ac146100845761003f565b3661003f57005b600080fd5b34801561005057600080fd5b5061006b60048036038101906100669190610270565b6100af565b005b34801561007957600080fd5b506100826100f2565b005b34801561009057600080fd5b506100996101e9565b6040516100a691906102ac565b60405180910390f35b806000806101000a81548173ffffffffffffffffffffffffffffffffffffffff021916908373ffffffffffffffffffffffffffffffffffffffff16021790555050565b60008054906101000a900473ffffffffffffffffffffffffffffffffffffffff1673ffffffffffffffffffffffffffffffffffffffff163373ffffffffffffffffffffffffffffffffffffffff1614610180576040517f08c379a00000000000000000000000000000000000000000000000000000000081526004016101779061034a565b60405180910390fd5b60008054906101000a900473ffffffffffffffffffffffffffffffffffffffff1673ffffffffffffffffffffffffffffffffffffffff166108fc479081150290604051600060405180830381858888f193505050501580156101e6573d6000803e3d6000fd5b50565b60008054906101000a900473ffffffffffffffffffffffffffffffffffffffff1681565b600080fd5b600073ffffffffffffffffffffffffffffffffffffffff82169050919050565b600061023d82610212565b9050919050565b61024d81610232565b811461025857600080fd5b50565b60008135905061026a81610244565b92915050565b6000602082840312156102865761028561020d565b5b60006102948482850161025b565b91505092915050565b6102a681610232565b82525050565b60006020820190506102c1600083018461029d565b92915050565b600082825260208201905092915050565b7f4f6e6c792074686520726563697069656e742063616e2077697468647261772060008201527f66756e64732e0000000000000000000000000000000000000000000000000000602082015250565b60006103346026836102c7565b915061033f826102d8565b604082019050919050565b6000602082019050818103600083015261036381610327565b905091905056fea2646970667358221220b226621b159de274ee21ca350d30efef6fd3ddcf944e06756f8aaeec6d21496864736f6c634300080d0033",
  "immutableReferences": {},
  "source": "pragma solidity ^0.8.0;\n\ncontract Payment {\n    address public recipient;\n\n    function setRecipient(address _recipient) public {\n        recipient = _recipient;\n    }\n\n    receive() external payable {}\n\n    function withdraw() public {\n        require(msg.sender == recipient, \"Only the recipient can withdraw funds.\");\n        payable(recipient).transfer(address(this).balance);\n    }\n}\n",
  "sourcePath": "/Users/mac/Documents/MUS-Kenitra/Blockchain/blockchain-pfm/blockchain/contracts/Payment.sol",
  "compiler": {
    "name": "solc",
    "version": "0.8.13+commit.abaa5c0e.Emscripten.clang"
  },
  "schemaVersion": "3.4.16",
  "updatedAt": "2025-05-11T12:12:00.072Z",
  "networkType": "ethereum",
  "devdoc": {
    "kind": "dev",
    "methods": {},
    "version": 1
  },
  "userdoc": {
    "kind": "user",
    "methods": {},
    "version": 1
  }
}