{
  "contractName": "Rectangle",
  "abi": [
    {
      "inputs": [
        {
          "internalType": "uint256",
          "name": "_x",
          "type": "uint256"
        },
        {
          "internalType": "uint256",
          "name": "_y",
          "type": "uint256"
        },
        {
          "internalType": "uint256",
          "name": "_longueur",
          "type": "uint256"
        },
        {
          "internalType": "uint256",
          "name": "_largeur",
          "type": "uint256"
        }
      ],
      "stateMutability": "nonpayable",
      "type": "constructor"
    },
    {
      "inputs": [],
      "name": "afficheXY",
      "outputs": [
        {
          "internalType": "uint256",
          "name": "",
          "type": "uint256"
        },
        {
          "internalType": "uint256",
          "name": "",
          "type": "uint256"
        }
      ],
      "stateMutability": "view",
      "type": "function",
      "constant": true
    },
    {
      "inputs": [
        {
          "internalType": "uint256",
          "name": "dx",
          "type": "uint256"
        },
        {
          "internalType": "uint256",
          "name": "dy",
          "type": "uint256"
        }
      ],
      "name": "deplacerForme",
      "outputs": [],
      "stateMutability": "nonpayable",
      "type": "function"
    },
    {
      "inputs": [],
      "name": "largeur",
      "outputs": [
        {
          "internalType": "uint256",
          "name": "",
          "type": "uint256"
        }
      ],
      "stateMutability": "view",
      "type": "function",
      "constant": true
    },
    {
      "inputs": [],
      "name": "longueur",
      "outputs": [
        {
          "internalType": "uint256",
          "name": "",
          "type": "uint256"
        }
      ],
      "stateMutability": "view",
      "type": "function",
      "constant": true
    },
    {
      "inputs": [],
      "name": "x",
      "outputs": [
        {
          "internalType": "uint256",
          "name": "",
          "type": "uint256"
        }
      ],
      "stateMutability": "view",
      "type": "function",
      "constant": true
    },
    {
      "inputs": [],
      "name": "y",
      "outputs": [
        {
          "internalType": "uint256",
          "name": "",
          "type": "uint256"
        }
      ],
      "stateMutability": "view",
      "type": "function",
      "constant": true
    },
    {
      "inputs": [],
      "name": "surface",
      "outputs": [
        {
          "internalType": "uint256",
          "name": "",
          "type": "uint256"
        }
      ],
      "stateMutability": "view",
      "type": "function",
      "constant": true
    },
    {
      "inputs": [],
      "name": "afficheInfos",
      "outputs": [
        {
          "internalType": "string",
          "name": "",
          "type": "string"
        }
      ],
      "stateMutability": "pure",
      "type": "function",
      "constant": true
    },
    {
      "inputs": [],
      "name": "afficheLoLa",
      "outputs": [
        {
          "internalType": "uint256",
          "name": "",
          "type": "uint256"
        },
        {
          "internalType": "uint256",
          "name": "",
          "type": "uint256"
        }
      ],
      "stateMutability": "view",
      "type": "function",
      "constant": true
    }
  ],
  "bytecode": "0x608060405234801561001057600080fd5b5060405161061338038061061383398181016040528101906100329190610096565b8383816000819055508060018190555050508160028190555080600381905550505050506100fd565b600080fd5b6000819050919050565b61007381610060565b811461007e57600080fd5b50565b6000815190506100908161006a565b92915050565b600080600080608085870312156100b0576100af61005b565b5b60006100be87828801610081565b94505060206100cf87828801610081565b93505060406100e087828801610081565b92505060606100f187828801610081565b91505092959194509250565b6105078061010c6000396000f3fe608060405234801561001057600080fd5b50600436106100935760003560e01c80639361c232116100665780639361c23214610111578063a56dfe4a1461012d578063a9305d851461014b578063cd514e4014610169578063cfa8d7a41461018857610093565b80630c55699c146100985780630e94ba83146100b65780634df3c7c1146100d457806383a443a6146100f2575b600080fd5b6100a06101a6565b6040516100ad9190610282565b60405180910390f35b6100be6101ac565b6040516100cb9190610282565b60405180910390f35b6100dc6101c3565b6040516100e99190610282565b60405180910390f35b6100fa6101c9565b60405161010892919061029d565b60405180910390f35b61012b600480360381019061012691906102f7565b6101da565b005b61013561020f565b6040516101429190610282565b60405180910390f35b610153610215565b6040516101609190610282565b60405180910390f35b61017161021b565b60405161017f92919061029d565b60405180910390f35b61019061022c565b60405161019d91906103d0565b60405180910390f35b60005481565b60006003546002546101be9190610421565b905090565b60035481565b600080600254600354915091509091565b816000808282546101eb919061047b565b925050819055508060016000828254610204919061047b565b925050819055505050565b60015481565b60025481565b600080600054600154915091509091565b60606040518060400160405280601181526020017f4a6520737569732052656374616e676c65000000000000000000000000000000815250905090565b6000819050919050565b61027c81610269565b82525050565b60006020820190506102976000830184610273565b92915050565b60006040820190506102b26000830185610273565b6102bf6020830184610273565b9392505050565b600080fd5b6102d481610269565b81146102df57600080fd5b50565b6000813590506102f1816102cb565b92915050565b6000806040838503121561030e5761030d6102c6565b5b600061031c858286016102e2565b925050602061032d858286016102e2565b9150509250929050565b600081519050919050565b600082825260208201905092915050565b60005b83811015610371578082015181840152602081019050610356565b83811115610380576000848401525b50505050565b6000601f19601f8301169050919050565b60006103a282610337565b6103ac8185610342565b93506103bc818560208601610353565b6103c581610386565b840191505092915050565b600060208201905081810360008301526103ea8184610397565b905092915050565b7f4e487b7100000000000000000000000000000000000000000000000000000000600052601160045260246000fd5b600061042c82610269565b915061043783610269565b9250817fffffffffffffffffffffffffffffffffffffffffffffffffffffffffffffffff04831182151516156104705761046f6103f2565b5b828202905092915050565b600061048682610269565b915061049183610269565b9250827fffffffffffffffffffffffffffffffffffffffffffffffffffffffffffffffff038211156104c6576104c56103f2565b5b82820190509291505056fea2646970667358221220bfd817a4ee806446ce5bfe15c7459c4cef331e5ad8a8967af2e8e3203863cf0a64736f6c634300080d0033",
  "immutableReferences": {},
  "source": "// SPDX-License-Identifier: MIT\npragma solidity ^0.8.0;\n\nabstract contract Forme {\n    uint public x;\n    uint public y;\n\n    constructor(uint _x, uint _y) {\n        x = _x;\n        y = _y;\n    }\n\n    function deplacerForme(uint dx, uint dy) public {\n        x += dx;\n        y += dy;\n    }\n\n    function afficheXY() public view returns (uint, uint) {\n        return (x, y);\n    }\n\n    function afficheInfos() public view virtual returns (string memory);\n\n    function surface() public view virtual returns (uint);\n}\n\ncontract Rectangle is Forme {\n    uint public longueur;\n    uint public largeur;\n\n    constructor(uint _x, uint _y, uint _longueur, uint _largeur) Forme(_x, _y) {\n        longueur = _longueur;\n        largeur = _largeur;\n    }\n\n    function surface() public view override returns (uint) {\n        return longueur * largeur;\n    }\n    \n    function afficheInfos() public pure override returns (string memory) {\n        return \"Je suis Rectangle\";\n    }\n\n\n    function afficheLoLa() public view returns (uint, uint) {\n        return (longueur, largeur);\n    }\n}\n",
  "sourcePath": "/Users/mac/Documents/MUS-Kenitra/Blockchain/blockchain-pfm/blockchain/contracts/Shape.sol",
  "compiler": {
    "name": "solc",
    "version": "0.8.13+commit.abaa5c0e.Emscripten.clang"
  },
  "schemaVersion": "3.4.16",
  "updatedAt": "2025-05-11T20:05:43.718Z",
  "networkType": "ethereum",
  "devdoc": {
    "kind": "dev",
    "methods": {},
    "version": 1
  },
  "userdoc": {
    "kind": "user",
    "methods": {},
    "version": 1
  }
}